:04000005000080C1B6
:020000040000FA
:10800000502800200983000011830000F59900002A
:10801000000000000000000000000000A137FEDFAB
:108020008F9E939B01999697FB000000B9810000F9
:1080300000000000000000005D820000BD82000022
:108040001B8300001B8300001B8300001B830000B8
:108050001B8300001B8300001B8300001B830000A8
:108060001B8300001B8300001B8300001B83000098
:108070001B83000029A600001B8300001B83000057
:108080001B8300001B8300001B8300001B83000078
:108090001B8300001B8300001B8300001B83000068
:1080A00011A700001B8300001B8300001B8300003E
:1080B0001B8300001B8300001B8300001B83000048
:1080C00000F002F800F030F80CA030C8083824188E
:1080D0002D18A246671EAB4654465D46AC4201D100
:1080E00000F022F87E460F3E0FCCB6460126334202
:1080F00000D0FB1AA246AB4633431847B4C9000070
:10810000D4C900000023002400250026103A01D322
:1081100078C1FBD8520700D330C100D50B6070473F
:108120001FB51FBD10B510BD00F0F2FC1146FFF7E2
:10813000F7FF06F01FFF00F00AFD03B4FFF7F2FFA0
:1081400003BC00F0BBFC000080F309887047EFF32C
:1081500009807047684680F3098806480078C007A0
:1081600003D1032080F314887047022080F3148821
:10817000704700005C390100064B9C46EFF3058315
:108180001B0605D1EFF31483DB0701D000DF704736
:108190006047000051FD0000064B9C46EFF305834D
:1081A0001B0605D1EFF31483DB0701D000DF704716
:1081B00060470000C1FF0000EFF309808169891E5C
:1081C0000978002933D1A6461FC8A4467446E04763
:1081D0001F4B06CB914224D0083B002910D00CB491
:1081E000203101234B70EFF30983203B4B60F0C338
:1081F00044464D4656465F46F0C308F05FF90CBC56
:108200001A60203253681033F0CBA046A946B2461C
:10821000BB4683F30988203BF0CB5078002803D07D
:108220001078EFF3098318600223DB43184710B579
:10823000084A1268914209D8074C89006458A6463A
:108240001FC8A446F047EFF309840FC410BD000017
:10825000D0F1FF1FF48B0000F48B000008F010F841
:10826000154B06CB914223D0083B0CB420310023A0
:108270004B70EFF30983203B4B60F0C344464D46FF
:1082800056465F46F0C308F019F90CBC1A6020325C
:1082900053681033F0CBA046A946B246BB4683F3E1
:1082A0000988203BF0CB5078002801D01078186165
:1082B0000223DB4318470000D0F1FF1F08F0CEF97E
:1082C000CEE7000007F07CF808F0C8F9C8E7000026
:1082D00070B505460C46164602E00FCC0FC5103EA1
:1082E000102EFAD2082E02D303CC03C5083E042E6A
:1082F00007D301CC01C5361F03E021782970641C27
:108300006D1C761EF9D270BD0748804707480047AC
:10831000FEE7FEE7FEE7FEE7FEE7FEE70448054965
:10832000054A064B7047000079A50000C180000097
:1083300050260020502800205027002050270020E1
:1083400000487047EC25002010B5002000F0BCFB71
:10835000FFF7E8FE012000F0B1FB10BD034610B5A9
:108360000B439B070FD1042A0DD308C810C9121F55
:10837000A342F8D018BA21BA884201D9012010BD11
:108380000020C04310BD002A03D0D30703D0521CE5
:1083900007E0002010BD03780C78401C491C1B1B13
:1083A00007D103780C78401C491C1B1B01D1921E7D
:1083B000F1D1184610BD000030B5441C03E001782F
:1083C000401C00290DD08107F9D10B4BDD0104C8F9
:1083D000D11A91432940FAD0001B0A0603D0C01ECF
:1083E00030BD001B30BD0A0401D0801E30BD090223
:1083F000FCD0401E30BD00000101010170477047F4
:10840000FFFFFFFFFFFFFFFFFFFFFFFFFEFFFFFF7D
:10841000FFB516460A46C3B0012141912092009053
:108420006A464198411E41918100091F80005558BC
:10843000001F20A9085842904010429970432C1800
:10844000C90700D1801B2146469A27182846904725
:1084500000280FDD314630462943890769D022784C
:108460002978401E2A702170641C6D1C0028F6D1EA
:10847000AD1BA41B3946469A20469047002825DDAF
:1084800039462846469A904700280FDD3146304647
:108490002943890755D03A782978401E2A703970C7
:1084A0006D1C7F1C0028F6D1AD1BBF1B314630462A
:1084B000214389074DD03A782178401E22703970C7
:1084C000641C7F1C0028F6D1A41BBF1B324631461A
:1084D0002243B81B920744D003782278491E2370A8
:1084E0000270401C641C0029F6D12C46871B409763
:1084F000469A4099A419204690470028F8DB469AEE
:108500004099BF1B384690470028F8DC304631467A
:10851000A74236D9214389072BD03A782178401ECB
:1085200022703970641C7F1C0028F6D1A41BBF1B6D
:10853000DEE722682968001F04C502C40028F8D1BC
:1085400096E73A682968001F04C502C70028F8D1D9
:10855000AAE73A682168001F04C402C70028F8D1BE
:10856000B2E703682268091F08C404C00029F8D1D3
:10857000BBE73A682168001F04C402C70028F8D18D
:10858000D4E72143890723D0409A2178401E1278EE
:108590002270409A641C11704099491C0028409137
:1085A000F2D13146A41B601B00F091F94299401EA4
:1085B000091A491E88421CDD0A2916DD6B46419ABC
:1085C00092009D5020AB98504198401C41901EE075
:1085D000409A2168001F126804C4409A11604099B3
:1085E000091D00284091F3D1DBE70A2813DD4290F2
:1085F00022E70A2809DD6B46419A92009C5020AB85
:1086000099504199491C4191F1E70A2903DD25461A
:108610000846429110E74198002800D000E747B093
:10862000F0BDFFB50E460746140081B03BD0002ECA
:1086300039D00A2E02D9049BFFF7EAFE761E3D468A
:108640006643701900902BE02E462D1900E0361B72
:10865000BE4205D329463046049A90470028F6DCEE
:1086600020462843311980070BD0002016E02A1835
:10867000136801E016681651121B8A42FAD2001DD7
:108680001351A0420CD2F2E72A18137801E01678B1
:108690001655121B8A42FAD2401C1355A042F3D33E
:1086A00000988542D0D305B0F0BD00000346F0B578
:1086B0000B439B072DD1244DEF01042A29D308C871
:1086C00010C95E1B9E43121F3E4017D0D8B2E1B2C4
:1086D000401A3106014310D198B2A1B2401A3104B8
:1086E00001430AD118022102000A090A401A310284
:1086F000014302D1180E210E401AF0BDA342DCD076
:1087000018BA21BA884201D90120F0BD0020C04327
:10871000F0BD002A01D10020F0BD03780C78401C88
:10872000491C002B0DD0A3420BD1521E09D0037857
:108730000C78401C491C002B03D0A34201D1521ECF
:10874000EBD1181BF0BD000001010101421E53785E
:10875000521C002BFBD10B78491C1370521C002BB0
:10876000F9D17047F8B5042A2CD3830712D00B78BF
:10877000491C0370401C521E83070BD00B78491C08
:108780000370401C521E830704D00B78491C0370F1
:10879000401C521E8B079B0F05D0C91ADF002023F7
:1087A000DE1B08C90AE0FFF793FDF8BD1D4608C9A6
:1087B000FD401C46B4402C4310C0121F042AF5D2C1
:1087C000F308C91A521EF0D40B78491C0370401CE0
:1087D000521EEAD40B78491C0370401C012AE4D4D1
:1087E00009780170F8BD431A70B593421BD28918FD
:1087F000801804E0491E401E0B78521E0370930738
:10880000F8D106E01039103878C9103978C010381E
:10881000103A102AF6D203E0091F001F0B6803600C
:10882000121FF9D570BDFFF753FD70BDF8B50646B0
:1088300014460843800707D0751AA54219D20819B3
:10884000102D13D2311907E03046FFF7CCFFF8BDE9
:10885000401E491E02780A70641EF9D2F8BD471BFB
:108860002A463946FFF77EFF641B3846A542F6D3F9
:10887000011B22463046FFF775FFF8BDD2B210B596
:1088800013029A1813049A1800F00EF810BD01E0B4
:1088900004C0091F0429FBD28B0701D50280801C6C
:1088A000C90700D00270704700290BD0C30702D05F
:1088B0000270401C491E022904D3830702D502809E
:1088C000801C891EE3E70022EEE70022DFE700229A
:1088D00003098B4273D3030A8B4258D3030B8B4299
:1088E0003CD3030C8B4221D312E003460B437FD4CD
:1088F000002243088B4274D303098B425FD3030ADF
:108900008B4244D3030B8B4228D3030C8B420DD3F1
:10891000FF22090212BA030C8B4202D3121209027F
:1089200065D0030B8B4219D300E0090AC30B8B42BD
:1089300001D3CB03C01A5241830B8B4201D38B036B
:10894000C01A5241430B8B4201D34B03C01A524110
:10895000030B8B4201D30B03C01A5241C30A8B4253
:1089600001D3CB02C01A5241830A8B4201D38B023E
:10897000C01A5241430A8B4201D34B02C01A5241E2
:10898000030A8B4201D30B02C01A5241CDD2C30954
:108990008B4201D3CB01C01A524183098B4201D3D0
:1089A0008B01C01A524143098B4201D34B01C01ABB
:1089B000524103098B4201D30B01C01A5241C30833
:1089C0008B4201D3CB00C01A524183088B4201D3A2
:1089D0008B00C01A524143088B4201D34B00C01A8E
:1089E0005241411A00D201465241104670475DE0A3
:1089F000CA0F00D04942031000D340425340002226
:108A00009C4603098B422DD3030A8B4212D3FC22CE
:108A1000890112BA030A8B420CD3890192118B424D
:108A200008D3890192118B4204D389013AD0921163
:108A300000E08909C3098B4201D3CB01C01A52411E
:108A400083098B4201D38B01C01A524143098B42E7
:108A500001D34B01C01A524103098B4201D30B01D0
:108A6000C01A5241C3088B4201D3CB00C01A5241F5
:108A700083088B4201D38B00C01A5241D9D24308DC
:108A80008B4201D34B00C01A5241411A00D2014619
:108A9000634652415B10104601D34042002B00D583
:108AA0004942704763465B1000D3404201B5002045
:108AB000C046C04602BD7047704770470149182044
:108AC000ABBEFEE72600020010B500F009F800F08A
:108AD00001F810BD10B5002801D0FFF7EFFF10BD61
:108AE00010B5002102A000F03AF8012010BD0000EE
:108AF000534947414252543A2041626E6F726D6150
:108B00006C207465726D696E6174696F6E0000002F
:108B10007546FFF715FCAE46050069465346C0088A
:108B2000C000854618B020B5FFF7F8FB60BC0027F1
:108B30004908B6460026C0C5C0C5C0C5C0C5C0C529
:108B4000C0C5C0C5C0C5403D49008D46704710B581
:108B50000446C046C0462046FFF7EFFA10BD70B588
:108B600005460C460A2000E06D1C00F012F8002DAE
:108B700006D028780028F7D102E0641C00F009F83C
:108B8000002C02D020780028F7D10A2000F001F84C
:108B900070BD08B5694608700320ABBE08BD70B54E
:108BA0008C180578401C6B075B0F01D10378401CC3
:108BB0002A1106D10278401C03E00678401C0E7092
:108BC000491C5B1EF9D12B0705D40023521E0DD47E
:108BD0000B70491CFAE70378401CCB1A921C03E087
:108BE0001D780D70491C5B1C521EF9D5A142D8D3CB
:108BF000002070BD00000000F8B502787F2A02D086
:108C000000F018F8F8BD0A704678851C4E708C1C70
:108C1000074F761E0AD32146284600F00BF8010CB8
:108C20003F1880B24D190419761EF4D23846F8BDAB
:108C300002000200F0B5027885B01346803B1F2B7E
:108C400003D800F0BFFA05B0F0BD0A704E1C0178E1
:108C5000401C17297CD20A007A4412799218974452
:108C60000B3B4865FEFDFC77FB788077777777775D
:108C700085FAF9F8F7F6F50000780021062826D0E5
:108C800009DC052823D202007A441279921897440D
:108C90001E1E1E1E0B00F0280CD0FD2817D0FE282B
:108CA00012D0FF2813D109E0F749701C04F0D9FA5B
:108CB00005210CE011207070012108E04020707047
:108CC0000020B070022102E0052070700121EF4801
:108CD0003170081805B0F0BD0078002805D00128D3
:108CE00003D0FF203070EA4841E200203070E848AD
:108CF0003DE20078002805D0012804D00020307023
:108D0000E44834E20120E44A01211170E3492024BF
:108D10004C6040224A604A604B6923434B614B6977
:108D200013434B614B6913434B61E8E7DA48002377
:108D30000370DA4841692022914341614169402230
:108D400091434161416991434161337001200EE2D9
:108D50002AE241780278080210430001401EFDD14A
:108D6000C3E7002070703070022000E2831C1C46B4
:108D7000257802782B46657841782D022B43A5781B
:108D8000E4782D042B432406234340791B021B0A5D
:108D900000060343C80708D0D00703D0BF4C2020EB
:108DA000606002E0BD4C2020A060880708D59007D5
:108DB00003D5BA4C4020606002E0B84C4020A0606F
:108DC000080609D5D009C00703D0B44C4020606024
:108DD00002E0B24C4020A060002B31D0B04883426A
:108DE00000D90346AF4C0025A561302043436361A1
:108DF000052020615308A94FD009CD0704D03D6953
:108E0000AD06ED0F954215D18D0704D53D696D0670
:108E1000ED0F9D420ED14D0701D595080AD18D0663
:108E200001D5550906D10D0608D53D696D06ED0F32
:108E3000854203D02569ED03ED0FDED000202061CF
:108E4000964A106911698006C00F09E083E07BE053
:108E500062E054E041E00FE082E1AFE090E07EE0CC
:108E60004906C90F4900084311694906C90FC901DC
:108E7000084330708C487AE10378C2781946437809
:108E800012061B0219438378C0781B04194311434F
:108E90000902090A0006014307D08448814208D329
:108EA0007D4901204870486013E0FF203070804801
:108EB0005DE1794C002060707E480818FFF707FDDF
:108EC000012804D90321401CFFF701FD00E0012027
:108ED000606000203070764849E10478401C002C26
:108EE00001D1FF2401340146204601F01DFB002082
:108EF0003070E41DE00867490004401837E100784D
:108F000065498207920F521C40070A75C00F4875C9
:108F1000002030705F482AE1FF2131700122037880
:108F2000401C14465B1E0CD30178401C8906890E38
:108F300000D14021C91DC90852184018521C5B1E9F
:108F4000F2D21004204312E10078FF213170514920
:108F5000000440180BE1FF2030704E4807E14E4AF4
:108F60000178117283784478190221435181017983
:108F7000C378080218439081002030704E48F6E014
:108F8000454A31461278012A15D00446401C027821
:108F9000401C002A08D00378401C9D0701D5DB0641
:108FA00000D5001D521EF6D10022001B0A700004DD
:108FB0007270801CDBE000F0A5F9D8E00390364821
:108FC000007801280CD0002030707070B070032041
:108FD0000399C978890756D5012189040843C6E059
:108FE00000243649039D029620460C70A9786A78C1
:108FF0000F021743ED1CF61C002F43D029786D1C7F
:10900000009189075CD50099C90711D0224845898C
:109010000021009801F00EF8022802D0012831D179
:1090200006E06D1E2ED3254909780029F0D082E094
:109030007F1E27D3002F04D10098C00701D00E2037
:1090400000901548458901A9009800F0F3FF022817
:1090500002D001286FD106E06D1E6CD31749097844
:109060000029F0D067E0019931700199641C090A68
:1090700071700199090CB1700199090EF170361DDA
:109080007F1ED7D257E060E0B03801000200020036
:10909000010002000100010018F3FF1F80F00F40E3
:1090A000C0C62D0000E000E00100060000366E01A1
:1090B00001000400FF356E010100050004F0FF1FF0
:1090C0007F1E04972A78E97810466A78090612020A
:1090D0001043AA78120410430843E9780002000AFA
:1090E00009060843019033482D1D478901A90098BE
:1090F00000F0A0FF022802D001281CD106E07F1E4C
:1091000019D32D4909780029F0D014E00498641C83
:10911000401E0490401C0028D4D12648264F458983
:1091200000210E2000F086FF022804D16D1E02D31C
:1091300039780029F4D002990C70029A210A5170F2
:10914000029988700298301A42E703998A784B781E
:10915000110219430122890492048918084306E088
:1091600014490978012906D0FF20307013481449AA
:1091700005B04018F0BD411C0A4613780079194625
:10918000537800061B0219439378D2781B041943C5
:10919000120611430902090A0143009169460020A1
:1091A00000F048FF0020E0E7FF20203EF077044871
:1091B00005B0F0BD18F3FF1F04F0FF1F010005000C
:1091C00001000100F0B583B002780A704D1C0178EF
:1091D000474C461C80390D2943D208007844007959
:1091E0000018874406141F3F4781818153616C72C8
:1091F000770005F0ADFD0746FFF7DEF8C6B22E702A
:10920000681C32463946FFF7ADFAA41930E007244E
:10921000684601F043FC224669462846FFF7A2FA59
:10922000344C61E0684601F039FC3178FF22084691
:10923000717812020902904311400843B17812027A
:109240000904904311400843F1780906084300904F
:10925000684601F045FC002001F0CAFC012028709E
:10926000254C41E03E21681C08F08CFD2870241834
:10927000641C39E03778701C394608F0F1FD012094
:10928000287038041A49001944182DE0012028706C
:109290003078002805D0012803D000202870174C12
:1092A00022E006F029F8FAE70120287004F02EFAEF
:1092B000002802D1022008F0DDFB114C14E03078C8
:1092C00007F0E6FC28700D4C0EE007F09FFC2870BC
:1092D0000B4C09E03778701C394607F059FD2870AF
:1092E0003804034900194418204603B0F0BD0000BB
:1092F0000100010009000100020005000200020057
:1093000002000100F0B589B00890044600208D1CD1
:109310000391C04902900870049005906778A41CDE
:10932000002F6FD02178641C019189076BD50499B7
:1093300000292FD0B84811214689019808400128FA
:109340000CD16946019800F075FE022814D1761EF2
:109350004CD3B04909780029F3D008E169460E20C2
:1093600000F068FE022805D1761E03D3A9490978CA
:109370000029F3D000210491012837D100992970E8
:109380000099090A69700099090CA9700099090EE1
:10939000E9702D1D0199C90659D52278E17810464A
:1093A0006278090612021043A2781204104308439F
:1093B000E1780002000A0906084307909648241D38
:1093C000808906900198C00711D0934846890021F2
:1093D000019800F02FFE022802D0012806D106E0F5
:1093E000761E03D38B4909780029F0D0BFE08A4864
:1093F00046896946019800F01DFE022804D0012824
:1094000019D108E0F8E05BE0761E14D381490978B1
:109410000029EED00FE08049009A09691140079AAF
:10942000914208D00699491E0691491C03D07949FA
:1094300009780029DBD07849009A09691140079A18
:10944000914201D01021084301284DD136E07249E4
:109450004E890199C90715D0049900292ED1002100
:10946000019800F0E7FD022802D001287FD106E034
:10947000761E7CD3674909780029F0D077E0012176
:1094800004911BE06946019800F0D4FD022802D047
:1094900001286CD106E0761E69D35E49097800295F
:1094A000F0D064E0009929700099090A6970009968
:1094B000090CA9700099090EE9702D1D00214EE0DC
:1094C000049800281FD05448468969460E2000F0B1
:1094D000B1FD022802D0012849D106E0761E46D30C
:1094E0004C4909780029F0D041E000982870009894
:1094F000000A68700098000CA8700098000EE870D0
:1095000000202D1D04902278E1781046627809062B
:1095100012021043A278120410430843E1780002BB
:10952000000A090608430199241D0090890603D505
:1095300039490861012013E0374846896946019896
:1095400000F078FD022802D0012810D106E0761E36
:109550000DD3304909780029F0D008E001210591A8
:109560000299491C02912B49097800290DD0002F3E
:1095700008D02178641C8A0701D5C90600D5241DAE
:109580007F1EF6D1012804D036E07F1E00D0C9E648
:10959000F8E7049900291ED01F481E4F46896946E6
:1095A0000E2000F047FD022802D0012824D105E05A
:1095B000761E21D339780029F1D01DE00099297059
:1095C0000099090A69700099090CA9700099090E9F
:1095D000E9702D1D10E0059900290DD00E480D4FA2
:1095E000468900210E2000F025FD022804D1761EB8
:1095F00002D339780029F4D0039A029911700399A3
:10960000487008980399201A0004691A084309B0A1
:10961000F0BD000004F0FF1F18F3FF1F10B4164840
:109620000021017041700322426001726422428174
:10963000818101220161027541751048816B1F22F1
:10964000520211438163FF200D4B033058610D48D6
:109650002021416042690A434261FF2404349C6135
:109660004021416042698A4342619C614160426994
:109670000A43426110BC704718F3FF1F008004408A
:1096800000B0044080F00F4070B50546EFF3108045
:10969000C407E40F72B6094E094B29463046F268FA
:1096A00000F010F8002805D1002329463046F26862
:1096B00000F010F9002C00D162B670BD50160020E9
:1096C0006B66656BFFB589B015460C466A4609980E
:1096D00005F09EF82A462146049B099804F043FEB3
:1096E000070030D1009C019E65196D1E3146284649
:1096F000FFF7EDF8002902D0401C7043451EAC4234
:109700001DD821020920090A000609180F484160E6
:109710000F490C98884201D06B2000E000200028FF
:1097200011D1099804F03AFE07460998006900280B
:1097300000D08047002F02D1A419AC42E1D909988A
:1097400004F0E8FD38460DB0F0BD00000000024016
:109750006B66656B002801D10420704770B5044624
:109760001548C0680001000F0F2821D013494000A0
:10977000085A80020025256060600120A0606561B4
:10978000A56180022561E060E069002802D00068E0
:10979000022809D00A480B49056041600A498160E6
:1097A000E061204600F012F825620020656270BD7D
:1097B00001204004DEE7000040800440C43D010079
:1097C0000417002084160020C4160020002801D1B0
:1097D0000420704770B5C4691548402241081548F7
:1097E0004900400840006568884202D9421A402A70
:1097F00012D82846FEF7B6FF10480F4E4108104811
:109800006D1C35604008402249004000A568884230
:1098100004D9421A402A01D9FEF796FD2846FEF7E0
:10982000A1FF6D1C022075602060002070BD00004B
:109830000DEB000019EB000048F1FF1F51E30000A1
:1098400065E30000002A01D104207047FFB589B00C
:1098500014461E460D466A46099804F0D9FF324662
:109860002946039B099804F07EFD07002DD1009D39
:10987000002E26D002CC164881600399042902D01C
:10988000082907D00EE02A020321120A49065118BE
:10989000416007E002CCC1602A020721120A0906D2
:1098A00051184160099804F079FD0746099800694C
:1098B000002800D08047002F03D103984519361A9D
:1098C000D8D1099804F026FD38460DB0F0BD00004F
:1098D00000000240FFB58BB014461E460D466A4696
:1098E0000B9804F095FF22462946059B0B9804F03F
:1098F0003AFD002833D16A4629460B9804F088FFC8
:10990000009D029808906942404201404F42AF4298
:1099100001D108983F18002C20D0300209907E1BFE
:10992000A64200D9264630460599FEF7D0FF2A0206
:109930000121120A090652180A494A60099A0004CC
:109940001043FF3088600B9804F028FD002806D1F2
:109950000898A41BAD193F18002CE0D100200FB0CF
:10996000F0BD000000000240002B01D10420704730
:10997000FFB589B016461D460C466A46129F0998E7
:1099800004F046FF32462146079B099804F0EBFCA1
:1099900000281DD1009C002E1AD014493806471803
:1099A00021020120090A4006091811484160876018
:1099B0002968C160099804F0F1FC00280AD01399C5
:1099C000002900D00C601499002901D000220A60FF
:1099D0000DB0F0BD0799761A890889004D190799CD
:1099E0000C19002EDCD10DB0F0BD0000FFFFFF0010
:1099F00000000240EFF3088470460007000F0D28B6
:109A000001D1EFF309842546A08B2035800500D5D0
:109A10002D1D7046C00600D44835704603F0EEFE9A
:109A2000EFF3098003F0EAFEEFF3088003F0E6FEAF
:109A3000EFF3148003F0E2FE284603F0DFFE6069D6
:109A400003F0DCFEA06903F0D9FEE06903F0D6FE66
:109A500000F0DEFDFEE710B500F066F800F058FA01
:109A600007F04EF8C72007F089F807F043F810BD5B
:109A700070B5044600F058F800F04AFA07F040F8D4
:109A8000162007F07BF8FF2007F078F8054607F06E
:109A900031F807F035F82806250C002809DA2020CF
:109AA00007F06CF8284607F08DF8A0B207F08AF8A6
:109AB00008E00121E8B24903401807F083F8A0B29A
:109AC00007F080F807F016F870BD000010B5002010
:109AD00000F0D7F80B4C53280ED1012000F0D1F83C
:109AE000462809D1022000F0CCF8442804D10320F4
:109AF00000F0C7F8502803D000202070C0B210BD7D
:109B00000120FAE7C0F1FF1F10B5054900200870D9
:109B100006F0FCFF034801218160416010BD000098
:109B2000C0F1FF1F40F00F4010B506F0E9FF05201F
:109B300007F024F8FF2007F021F8044606F0DAFFCA
:109B4000E007F2D110BD0000014800787047000026
:109B5000C0F1FF1FF8B517460C46064606F0D0FFC9
:109B6000052007F00BF8FF2007F008F8054606F07F
:109B7000C1FFE807F2D106F0C3FF062006F0FEFFA2
:109B800006F0B8FF06F0BCFF052006F0F7FFFF2047
:109B900006F0F4FF054606F0ADFFA807F2D5FF205A
:109BA000E1B20130451AAF4200D83D4606F0A8FFA9
:109BB000162006F0E3FFFF2006F0E0FF009006F01D
:109BC00099FF06F09DFF0098000609D5022006F0D7
:109BD000D5FF200C06F0F6FFA0B206F0F3FF09E077
:109BE0002002000EFF30FF30023006F0EBFFA0B283
:109BF00006F0E8FF64197F1B3078761C06F0BEFF84
:109C00006D1EF9D106F076FF002FA7D1F8BDF8B58B
:109C100015460E460746FFF787FF06F071FF162030
:109C200006F0ACFFFF2006F0A9FF044606F062FF35
:109C300006F066FF200609D5032006F09FFF300CD2
:109C400006F0C0FFB0B206F0BDFF09E03002010E21
:109C500003200002081806F0B5FFB0B206F0B2FF0C
:109C60000024002D06D9FF2006F088FF3855641C1B
:109C7000AC42F8D306F03EFF7F1976196D1BCCD1AC
:109C8000F8BD10B5044606F03BFF5A2006F076FFFB
:109C9000002006F073FF002006F070FF204606F05B
:109CA0006DFFFF2006F06AFFFF2006F067FF044605
:109CB00006F020FF204610BDF7B584B000200090CC
:109CC00006980C0B08180D46240302908C49001BC3
:109CD0004018000B019070D08A48012140680906A5
:109CE000884252D3FF20874900044860FFF71CFFD9
:109CF00000F00EF906F004FF162006F03FFFFF20EB
:109D000006F03CFF064606F0F5FE06F0F9FE3006CA
:109D100009D5D82006F032FFFF2006F053FF0020BF
:109D200006F050FF05E0784806F04CFF002006F0F2
:109D300049FF06F0DFFE0120000326182746B44243
:109D400079D2F81DF9300390A84276D90399029888
:109D500088423DD3AF4231D2FF22013239466B48AF
:109D6000FFF755FF69487A1BE91B0818FF320132DB
:109D70000499FEF7F7FC6348391B4068FF22091875
:109D800001326248FFF7E6FE66E0FF2109048842DF
:109D9000D1D1FFF7C9FE00F0BBF806F0B1FE1620E6
:109DA00006F0ECFEFF2006F0E9FE064606F0A2FEF5
:109DB00006F0A6FE3006B6D5ABE79EE05148391B4B
:109DC00040687A1B091804981018FF2201322FE00E
:109DD000AF4216D2FF22013239464C48FFF717FF37
:109DE0004A48E91B0818069A0499FEF7BBFC454847
:109DF000391B4068FF22091801324448FFF7AAFEC8
:109E00002AE0B84219D9FF22013239463F48FFF70C
:109E1000FEFE0298791BC21B049809183B48FEF706
:109E2000A1FC3848391B4068FF2209180132374825
:109E3000FFF790FE10E013E0FFE7FF220132394602
:109E40003248FFF7E4FE2F48391B4068FF2209180B
:109E500001322E48FFF77EFE039FB74200D270E723
:109E6000FFF762FE00F054F806F04AFE162006F0F6
:109E700085FEFF2006F082FE074606F03BFE06F058
:109E80003FFE380609D5202006F078FE200C06F0AB
:109E900099FEA0B206F096FE09E02002010E012014
:109EA0004003081806F08EFEA0B206F08BFE06F006
:109EB00021FE2746B44212D21248391B4068FF22C5
:109EC000091801321148FFF7A2FEFF22013239467C
:109ED0000E48FFF73FFEFF370137B742ECD3094882
:109EE0000121426809035118416000980199401C02
:109EF00034460090884200D2EEE607B0F0BD000084
:109F0000FF0F0000C0F1FF1FFFD80000B5230020A5
:109F100010B506F0F5FD062006F030FE06F0EAFD6D
:109F200006F0EEFD052006F029FEFF2006F026FED5
:109F3000044606F0DFFDA007F2D510BD70B5064659
:109F400015460C46080503D03046FFF703FE70BDEA
:109F50000846FFF78DFD2A4621463046FFF7FAFDF9
:109F600070BD000010B5EFF31080C007C00F72B6CF
:109F70000021064A1160002800D162B60448FFF7AC
:109F8000E9FB002800D0012010BD00000081044042
:109F90005016002010B582B000206946FF240C54F2
:109FA000401CC0B20828FAD3332000F0BDFA9E202E
:109FB00069460870E7204870102000F0B5FA0020CC
:109FC00069460C54401CC0B20828FAD3332000F074
:109FD000ABFA002069460870082000F0A5FA01A934
:109FE000002007F0E3F8012800D0002002B010BDE7
:109FF000F0B583B0074616460D46EFF31080C40750
:10A00000E40F72B60B4639460948FFF71BFC0028DF
:10A0100009D1012101900091029033462A46394628
:10A020000348FFF7A1FC002C00D162B603B0F0BDDD
:10A030005016002000B5054A5278002A02D000F0E0
:10A0400007F800BD00F0E8F800BD000018F3FF1F9E
:10A05000F0B402466E4E402070602027B7607760F3
:10A06000D30701D0706000E0B060B760776053083C
:10A07000DD0701D0706000E0B060B7607760D41891
:10A080009308DD0701D0706000E0B060B7607760D2
:10A09000E418D308DD0701D0706000E0B060B7605D
:10A0A0007760E318DB0701D0706000E0B060B76054
:10A0B0007760B060B76077607060B7607760736931
:10A0C0004020834373615348007D031E03D0B76073
:10A0D0007760401EFBD1B760306977604006C00FE3
:10A0E000B760346977606406E40F64000443B760C6
:10A0F000306977604006C00F80002043012810D0EF
:10A10000022862D0042860D0213303D0B760776082
:10A110005B1EFBD1726940210A4372617160F0BC21
:10A120007047920726D500231C462022B760356968
:10A1300077606D06ED0F64195B08ED072B43521E27
:10A14000F4D1B760326977605206D20F5440E2070B
:10A1500000D00820002900D00B602E49097D00297D
:10A1600003D0B7607760491EFBD17169402211436B
:10A1700071611EE0002B03D0B76077605B1EFBD1DE
:10A18000726940252A437261096800232022CC07A6
:10A1900001D0756000E0B560B76077605B18490872
:10A1A000521EF4D1D90701D0756000E0B560B760E8
:10A1B00077601849097A002905D04022B260B7605B
:10A1C0007760491EFBD14021A8E712494C7D002C45
:10A1D00006D0910704D52121B7607760491EFBD1D5
:10A1E000002B03D0B76077605B1EFBD17169402301
:10A1F00019437161002C07D0910705D4B360212168
:10A20000B7607760491EFBD17360F0BC70470000F7
:10A2100080F00F4018F3FF1FF0B58C460446002075
:10A22000BF4940234B6020268E60BE4F7A6815469A
:10A230006D1EFDD14E6015466D1EFDD1E50701D0A6
:10A240004B6000E08B608E6015466D1EFDD14E6048
:10A2500015466D1EFDD105196008C70701D04B607A
:10A2600000E08B608E6017467F1EFDD14E60174662
:10A270007F1EFDD12D18A008C70701D04B6000E05C
:10A280008B608E6017467F1EFDD14E6017467F1E85
:10A29000FDD12F18E508E80701D04B6000E08B6086
:10A2A0008E601046401EFDD14E601046401EFDD10E
:10A2B0007819C00701D04B6000E08B608E60994D2B
:10A2C0001046401EFDD14E601046401EFDD18B60F1
:10A2D0008E601046401EFDD14E601046401EFDD1DE
:10A2E0004B608E601046401EFDD14E601046401EF1
:10A2F000FDD148694023984348612B7D1D1E09D03C
:10A300008E601046401EFDD14E601046401EFDD1AD
:10A310005B1EF5D18E601046401EFDD108694E606F
:10A320004006C00F13465B1EFDD18E6013465B1EB8
:10A33000FDD10B694E605B06DB0F17467F1EFDD11A
:10A340005B0003438E601046401EFDD10869400645
:10A35000C00F20264E601646761EFDD180001843A1
:10A36000012816D002286ED004286CD021350AD0DE
:10A3700020248C6013465B1EFDD14C6013465B1E8F
:10A38000FDD16D1EF5D14A6940231A434A614B60E5
:10A39000F0BDA3073CD500252E46202420238B604A
:10A3A00017467F1EFDD10F694B607F06FF0F1346D6
:10A3B0005B1EFDD16B08FD07F6191D43641EEDD130
:10A3C00020238B601446641EFDD10C690F46640681
:10A3D000E40F4B60521EFDD16640F20700D008200A
:10A3E0006246002A00D015604E4A147D002C0AD027
:10A3F0005568BB602A46521EFDD17B602A46521E1C
:10A40000FDD1641EF5D17B69402213437B6139E0A5
:10A41000002D0AD020248C6013465B1EFDD14C60B9
:10A4200013465B1EFDD16D1EF5D14C6940231C43C4
:10A430004C6164460026246820252F46E30703D09C
:10A4400040234B6002E032E040238B608F60134674
:10A450005B1EFDD14F6013465B1EFDD136196408AB
:10A460006D1EEBD1F30702D040234B6001E0402387
:10A470008B603C460D468F6013465B1EFDD16C60C1
:10A48000521EFDD1274A137A002B0DD040248C6038
:10A49000546820258D602246521EFDD14D60224613
:10A4A000521EFDD15B1EF5D140224A60F0BD1D4B0E
:10A4B0005B7D9C46002B0DD0A3070BD521262027C2
:10A4C0008F6013465B1EFDD14F6013465B1EFDD1AE
:10A4D000761EF5D1002D0AD020268E6013465B1E15
:10A4E000FDD14E6013465B1EFDD16D1EF5D14B694B
:10A4F00040252B434B616346002B0ED0A3070CD4A1
:10A500008D60212420268E6013465B1EFDD14E6097
:10A5100013465B1EFDD1641EF5D14D60F0BD0000F9
:10A5200080F00F4018F3FF1FF0B4124C104E20279C
:10A530006568401E03D2F0BC7047002B02D10C7836
:10A540000823491CE20702D04022726001E0402249
:10A55000B260B7602A46521EFDD177602A46521E6D
:10A56000FDD164085B1E401EE7D2F0BC70470000BE
:10A5700080F00F4018F3FF1F1D48002202601D48A5
:10A58000816B4315194381631C491B4848601C4873
:10A5900083681C490B408360C3680B40C3601A4941
:10A5A00080200870194824214170A2210170C178CF
:10A5B000C906C90EC1700321017142718179C906B2
:10A5C000FCD481790907890F0229FAD14021417110
:10A5D00081790907890F0229FAD181794906FCD5C9
:10A5E0001A21017081790907890F0329FAD170476F
:10A5F00000810440008004400000011040800440BD
:10A6000040900440FFF8FFFE005006400040064026
:10A61000BFF34F8F03490248C860BFF34F8FFEE777
:10A620000400FA0500ED00E038B5254D2C79E878F6
:10A63000800601D420208443E878000601D48020DD
:10A640008443200616D51F4802F0F4FE002800D0EF
:10A650000120E7221CA102F053FE1A4802F00AFF73
:10A66000E871184802F0E6FE002803D1E8784006B9
:10A67000400EE870A00605D56007800F03D0E8798A
:10A680006946087038BDED791B4802F0B5FE0446F6
:10A69000132804D92946184802F018FF38BD03F0E2
:10A6A00045F8002807D0132CF8D1132213A1124823
:10A6B00002F094FF38BD104802F0DCFEEAE700002B
:10A6C00000B00640101700202E2E5C2E2E5C2E2E81
:10A6D0005C736F757263655C6869635F68616C5C0D
:10A6E000667265657363616C655C6B6C32367A5C4F
:10A6F000756172742E630000201900203C444150A3
:10A700004C696E6B3A4F766572666C6F773E0A00E5
:10A71000F8B5314E002430780090010741D5317CE6
:10A720000A090807C00F4B07DB0F154605431AD16E
:10A73000950040002818C018284FC0003B5C9B06BD
:10A740001B0F012B0FD1C3195D88002D0BD1244D98
:10A75000AA5C5A803A5C520601D5882200E0C822E1
:10A760003A5401200143EFF31080C507ED0F72B694
:10A770001C4A1D4FB86811541521401CFEF7A7F85C
:10A78000B960002D00D162B608203070002C02D1D3
:10A79000307D800601D5012400E0002430780107D7
:10A7A000BDD4009A0243EFF31081C907C90F72B6F6
:10A7B0000E4B1D6815431D60002900D162B6002CA8
:10A7C00001D0012100E00021074A137819431170DC
:10A7D000307002F0F7FCF8BD80200740001E00201A
:10A7E000B8F1FF1FA0230020A4F1FF1FB0F1FF1F4D
:10A7F0000020704770B50B4D0C460346696B286B03
:10A8000088420BD9401A844200DD0446224618468D
:10A81000FDF7A8FF686B0019686300E0002420467C
:10A8200070BD00004CF2FF1F00207047F8B5184FB4
:10A830000C46064679693869401A16490988081A8B
:10A84000002801DC0020F8BD844200DD0446FA69DE
:10A85000B869002590420DD30F4A031951188B4255
:10A8600008D30D1A2A463146FDF77CFF76190A48AF
:10A87000641BB861002C06D022463146FDF772FFFA
:10A88000B8690019B8613969601909183961F8BDEA
:10A890004CF2FF1F0A3E0100321C0020F8B5234C89
:10A8A000A06800283DD0616920690026421AE0684E
:10A8B00011460143002935D021461D4FC9691D4D60
:10A8C000002A10D0A069814205D338888B18281837
:10A8D000834200D3421A1848007843001748C05AF0
:10A8E000904200DA02461648E6600078802318435A
:10A8F00002F07AFCE1690918E1616269121862618B
:10A900003B88EB188B4200D1E561216991420BD164
:10A91000094909784A000949895A814204D101202C
:10A92000E060F8BDA660F8BDE660F8BD4CF2FF1F20
:10A930000A3E0100321C00208FF2FF1F0E3E010074
:10A94000083E010010B50C4C206A002803D0A06A14
:10A95000401CA06210BD01202062606200F00EF871
:10A96000002060622062616B206B8842F2D0401A46
:10A97000FFF75AFF10BD00004CF2FF1F10B5134C3B
:10A980001348216B154B0A1A12480088821A124884
:10A9900000784000185A82420EDB1148007802F01D
:10A9A00015FA216B08182063A06A00280CD0616A90
:10A9B000002909D1401E06E00120E062606A0028FB
:10A9C00002D0A06A401CA06210BD00004CF2FF1F24
:10A9D000721C00200C3E01008FF2FF1F0E3E010092
:10A9E000093E010010B50446400702D52046FFF796
:10A9F000A9FF200709D5054C6068002805D1012072
:10AA00006060FFF74BFF0020606010BD4CF2FF1F3D
:10AA1000002070470020704710B50B4800F03EF84A
:10AA2000002810D0084A094910680870030A4B70C2
:10AA3000030C8B70000EC870107908715079487142
:10AA400090798871012010BD84F2FF1F301B002017
:10AA500010B50E48002141608160C16001610C4A5F
:10AA600082614161016241628162C261C162094ADF
:10AA7000026342630180E1220748520202600171D1
:10AA800041710821817100F01DF810BD4CF2FF1FCB
:10AA9000321C0020721C002084F2FF1F084A11683B
:10AAA00001700B0A43700B0C8370090EC170117991
:10AAB00081715179417191790171012070470000D4
:10AAC00010F3FF1F10B507F023F904F087FA0120F7
:10AAD00010BD10B507F060F9012010BD01207047CE
:10AAE00010B50378C2781946437812061B02194341
:10AAF00083781B0419431143064A1160817911714F
:10AB000041795171007990710020D071104607F0A1
:10AB100059F910BD10F3FF1F10B50F480024446011
:10AB20008460C46004610D498161446104624462CF
:10AB30008462C462C1610A49016341630480FFF712
:10AB4000C8FFE121074849020160047144710821EE
:10AB50008171FFF7C5FF10BD4CF2FF1F321C0020B2
:10AB6000721C002084F2FF1F10B5FFF7D5FF10BD47
:10AB70001C480078002833D070B51B4C0025206A93
:10AB8000012600280AD1616B206B884206D1174943
:10AB9000884203D02163E56225626163A06A0028D0
:10ABA00010D0206A00280DD1E06A00280AD1266260
:10ABB000FFF7E4FE2562616B206B884202D0401AE9
:10ABC000FFF732FEA1686068084308D16169206917
:10ABD000884204D06660A660FFF760FE656070BDC5
:10ABE000704700008DF2FF1F4CF2FF1F721C002007
:10ABF000B0B505460F480068C1698847002817D1DD
:10AC00000D4C0E4F002D06D0BC4600DF206000200A
:10AC100006F030FF0CE0BC4600DF2168401AFF213F
:10AC20002D31884201D3012000E0002004F0E4F936
:10AC30000120B0BD943901000CF3FF1F99060100FB
:10AC4000002070470020704710B502490880FFF7C8
:10AC500045FF10BD4CF2FF1F10B50E4B1A78D97886
:10AC600010465A780906120210439A7812041043CB
:10AC700008430102D878090A00060143064801602A
:10AC8000197901715979417199798171FFF728FF1B
:10AC900010BD0000301B002084F2FF1F01078A0E48
:10ACA000044900B551180A78FD231A400A7002F0D1
:10ACB00021FA00BDC020074000B501464A790B7952
:10ACC000807811021943020601D4024A115402F09D
:10ACD00011FA00BDB8F1FF1F704710B500F0D4FDA8
:10ACE00010BD000008490028084A087D04D001234F
:10ACF00018430875102005E0400840000875107AD8
:10AD0000EF21084010727047802007400021074063
:10AD100010B50B4C0B48A2880078824200D902463D
:10AD2000002A02D10849002008718020216802F021
:10AD30005BFA216809182160A188081AA08010BD5B
:10AD4000A0F2FF1FE83D01008CF2FF1F70470000DA
:10AD50000849020607D50007800E40180178FA223C
:10AD6000114001707047800040180178F6221140B0
:10AD700001707047C02007400849020607D5000748
:10AD8000800E401801780522114301707047800041
:10AD9000401801780922114301707047C020074014
:10ADA000F1B584B0049880076FD50822F8490020D7
:10ADB00002F00CF8F64C2078C009FFF7C7FFF54801
:10ADC000E188818020784106890F04D001297DD057
:10ADD00002297CD1EFE2EE4949780C2977D20A00AA
:10ADE0007A441279921897440542725172607772D0
:10ADF000F4F3F2F1E649C006C00E04D0012806D0F3
:10AE0000022864D112E0E348E349016026E1E34807
:10AE10004278002A5BD009798078814257D2E04895
:10AE2000002101704170DB49086017E108798F212A
:10AE30000840010605D50207120F012109049140BF
:10AE400001E001218140D54A5378002B01D1000750
:10AE50003DD1906808423AD0D068084000D0012027
:10AE6000CF490870000A4870CA480160F6E0002027
:10AE700002F0A4F800282AD000221146802002F017
:10AE8000B3F9C848006800287AD1AEE2012002F088
:10AE900095F800281BD000221146802002F0A4F96A
:10AEA000C048006800286BD19FE2B949C006C00EB7
:10AEB0000DD1887880210843B84908704006400EBB
:10AEC000012102F069F90022114601E061E27CE013
:10AED000802002F089F988E2AD4BC006C00E02D096
:10AEE000012872D1A5E0D878062812D006DC012806
:10AEF00009D002281ED0032867D16DE0072844D06E
:10AF00000F2862D185E0A348A74901601220019073
:10AF100095E0A6480078002857D0A048C0780028BF
:10AF200004D09C48A24901600A202CE09948A1491C
:10AF30000160F9E79D480078002803D19748C07860
:10AF4000012842D09548C07800281AD09A4800902D
:10AF50009B780020002B0CD000990A78002A05D09D
:10AF6000CA788C781202224351180091401C834207
:10AF7000F2D100980178002927D08649086053E073
:10AF8000CAE18E48E3E7019059E08848007800283C
:10AF90001BD08248C07800281CD0894800909B783C
:10AFA0000020002B0CD000990A78002A05D0CA781E
:10AFB0008C781202224351180091401C8342F2D136
:10AFC00000980178002900D0D7E799E051E13CE1F1
:10AFD00050E046E07B48E1E77B4800909978032900
:10AFE00014D00020002909D000990A78002A01D045
:10AFF000511800919978401C8142F5D10098017850
:10B0000000297DD0634908600078BCE703F0A4FE06
:10B01000F8E76E480078002872D06D485D490090CE
:10B020000860017800296BD0C1788278080210434B
:10B03000A9E701A9684601F073FF002860D05549CF
:10B0400001988A88824209D980B28880614909784A
:10B05000491E084202D1514801210171FFF758FEF3
:10B06000C3E1C006C00E4BD14A485B490160FFF7FF
:10B070004FFEBAE10021C0060091C00E40D1444805
:10B08000807800286FD049480078002803D14348D1
:10B09000C078012834D0414EF07800280CD0464CBE
:10B0A0002078002873D001276078022806D0042871
:10B0B00048D0052866D148E0404CF1E73448617932
:10B0C0008078814239D1707020794449B0700B8802
:10B0D0000020002B05D9424A00211154401C9842FF
:10B0E000FBD301253846B168A840084202D0284663
:10B0F000FFF72EFE01200004B168A840084200E0DE
:10B1000009E104D0284680210843FFF721FE6D1C89
:10B11000102DE7D33348B0600020F0603061354631
:10B120000120FFF7D9FDE0794006E88801D53843D2
:10B1300001E040084000E88024E0E078A1780002C7
:10B14000084320E0E07800901CE00098002819D126
:10B15000A5788F200540280606D52907090F01206C
:10B160000004884002E03FE03846A840B16801434F
:10B170002046B160FFF7A0FD2846FFF7FDFD2846F9
:10B1800001F0B8FF20780419207800288CD14CE019
:10B19000A8F2FF1FA0F2FF1F92F2FF1F8CF2FF1F09
:10B1A000301B0020703E01009A3E0100E33D01008B
:10B1B000AD3E0100AC3E01001D400100913F010089
:10B1C0001F4001001E40010020400100E43D01003D
:10B1D000583F0100E83D01008DF2FF1FE63D0100F0
:10B1E00097F1FF1F010001000026AF4D01246E7092
:10B1F00080270120A968A040084202D02046FFF71E
:10B20000A7FD01200004A968A040084203D0204601
:10B210003843FFF79DFD641C102CEAD3EE60A34871
:10B220002E61A8600020FFF757FDA14881781C38E7
:10B23000407881426FD100221146802001F0D4FF76
:10B240009C480068002867D1CFE0C006984AC00E2D
:10B25000012860D19449487800285CD01079897819
:10B26000884258D29449411894480160FFF750FD34
:10B27000BBE00027C006C00E3E4603970197012899
:10B2800049D189484178002945D0002102918C4953
:10B290000978002902D1C17801293CD0C178002960
:10B2A0000BD0884C2178002965D06078022806D020
:10B2B00004280ED0052859D11DE0834CF2E77A48C6
:10B2C00061794078814251D0E078A178000208434A
:10B2D0004DE0A778E6780020019075480179B942E1
:10B2E00044D18078B04241D1012002907248C15DC2
:10B2F0000391C6553AE06E490879B84236D1A07834
:10B300008F22104000900006009806D50007000F1D
:10B3100001252D0402E059E039E0012585408878B7
:10B32000B04213D16048816829438160C168A94354
:10B33000C1602046FFF7C0FC0098FFF71DFD009894
:10B3400001F0D8FE0198284301900FE0039886424F
:10B350000CD10198284209D153488168A9438160E2
:10B36000C168A943C1600098FFF7F2FC2078041976
:10B370002078002899D10298002827D00022114671
:10B38000802001F031FF5148006800282DD080470F
:10B390002BE0C006C00E19D0012817D100F048F9E3
:10B3A000002822D100F0B0F900281ED100F0E4F806
:10B3B00000281AD10AE0C006C00E07D100F0DEF95D
:10B3C000002812D100F028FA00280ED13848017860
:10B3D000C90904D1C088002801D0002000E08020E5
:10B3E00001F0E4FE3549002088800498400709D523
:10B3F0002F4D2878C00915D03548364902780020ED
:10B4000001F0E4FC0498000740D529480078C00901
:10B4100032D02A48244980880979084336D0FFF77A
:10B4200077FC33E0254CA288002AEBD0002021686D
:10B4300001F0CCFC216809182160A188081A0004D9
:10B44000000CA080DED128784106890F0ED001299A
:10B450000CD1C006C00E09D0012807D100F06EF84B
:10B460000028CFD100F038F80028CBD1802001F09F
:10B470009DFE0020A080C5E70B490878020605D58F
:10B480004006400E0870002101F086FE0498400638
:10B4900002D50020FFF702FC0498000602D58020A8
:10B4A000FFF7FCFB05B0F0BD8CF2FF1F01000100AF
:10B4B000A8F2FF1F683E010097F1FF1FA0F2FF1FD7
:10B4C000E33D01001D400100913F01006C3E010081
:10B4D000E83D0100301B002010B51549154A0879D8
:10B4E0001278904203D0144A127890421DD14878C5
:10B4F000002804D0022807D0202816D10DE0FFF73D
:10B500009FFB00280DD110E0C8788978000208431D
:10B51000FFF798FB002804D107E0FFF79DFB002808
:10B5200003D001F059FE012010BD002010BD000025
:10B53000A8F2FF1F063E0100073E010010B50B49AF
:10B540000B4A08791278904203D00A4A1278904246
:10B550000AD14878092807D100F0A0FB002803D0C1
:10B5600001F03AFE012010BD002010BDA8F2FF1F1F
:10B57000E93D0100EA3D010070B52849284A0879F3
:10B580001278904203D0274A1278904243D1234840
:10B590004978C27883781002234C244D184304293B
:10B5A00023D008DC002916D001290DD0022912D0A1
:10B5B000032930D111E020290DD021291AD02229C8
:10B5C0001DD0232927D11FE0FFF724FA002808D136
:10B5D00021E0012070BD2C60FBE7FFF719FA00287D
:10B5E00019D02C60FFF794FBF3E7FFF701F900286F
:10B5F0000ED110E0FFF710FA0028F2D10BE0FFF7B0
:10B6000023FB002804D106E0FFF7F2FA002802D05D
:10B6100001F0E2FDDDE7002070BD0000A8F2FF1F91
:10B62000063E0100073E0100301B0020A0F2FF1F74
:10B6300010B52D4C2D4920790978884203D02C492A
:10B64000097888424DD160780C284AD201007944AB
:10B65000097949188F444505283445454545451A1B
:10B660002D3E00F033FA00283BD0E078012802D0CC
:10B67000032804D006E020491E48086002E01E4965
:10B680001E480860FFF744FB012010BDE078022847
:10B6900002D0032804D011E01749194808600DE0D2
:10B6A00015491648086009E000F0F8F900280BD1A8
:10B6B00017E000F0CBFA002810D112E0012010BDF5
:10B6C00000F0FAF900280CD00B490E480860FFF78B
:10B6D0001FFBF3E700F0D8FA002802D001F07CFD50
:10B6E000ECE7002010BD0000A8F2FF1FE93D0100BB
:10B6F000EA3D0100711B0020A0F2FF1FA2F1FF1F15
:10B70000B21B0020301B002010B51848184A0179E0
:10B710001278914227D142780146C8788B7800028E
:10B720001843CB798C7919022143FE2A0CD0FF2AC9
:10B7300019D1002817D1002915D101F07FFA00286E
:10B7400011D001F049FD0CE000280CD101290AD1EB
:10B7500000F0EAFE002806D0074906480860FFF717
:10B76000D7FA012010BD002010BD0000A8F2FF1F75
:10B77000FC3D0100301B0020A0F2FF1FF8B5204D5A
:10B780002049687809780027884236D16879297974
:10B7900000020843022830D1AA781B4C002A2CD082
:10B7A00000200126012A07D92178002900D00C1990
:10B7B000811C401C8A42F7D82078002818D003F05A
:10B7C00057FA0146E01CFCF7C1FF104A012714603C
:10B7D000E979AB7920780902194381420AD90C49E9
:10B7E00090800978491E084205D10A48067002E097
:10B7F000002702E09180FFF78BFA3846F8BD000081
:10B80000A8F2FF1F123E010058F1FF1FA0F2FF1F18
:10B81000E83D010090F2FF1F10B5154A1549507818
:10B8200009780024884220D1507911790002084318
:10B8300007281AD1114B10481860417A007A090282
:10B840000143D0799279000201241043884209D93A
:10B850000B4899800078401E014204D1094901201B
:10B86000087000E09880FFF753FA204610BD0000F2
:10B87000A8F2FF1F133E0100AE3E0100A0F2FF1F21
:10B88000E83D010090F2FF1F074800214170C160B0
:10B8900001614161418081808161C161C18001811B
:10B8A0000162418170470000B0F2FF1FF8B5494EB8
:10B8B000B0887188484F00257C1C884218D3B06935
:10B8C000002815D17561B580012339787A1C184696
:10B8D00006F044FD70807088002809D03F487761E9
:10B8E0000078012801D8746102E07088401C7080E3
:10B8F000708800283AD1F068002801D0F56035E062
:10B900003069002832D03549097801290ED83D70B8
:10B91000B58002237A1C0021012006F01FFD7080F3
:10B920007088002800D0746135611FE03C780127E1
:10B93000202C00D300243946A14001421AD0601CBB
:10B94000C1B2254A02231170B5800120521C06F0B5
:10B9500005FD70807088002804D01F4870617088D1
:10B96000401C70803069A740B8433061708800285F
:10B9700006D102E0641CE4B2DAE7B069002826D000
:10B980007088B188164F401A84B238784100154843
:10B99000405AA04200D20446134880210078224633
:10B9A0000843716901F020FC706910490019706149
:10B9B000B088001980B2B0800988884208D23878EF
:10B9C00041000848405AA04202D10120B061F8BDB0
:10B9D000B561F8BDB0F2FF1F701B0020F63D0100FD
:10B9E0008FF2FF1FF23D0100EB3D0100F83D010029
:10B9F000F8B51C4C002620891B4D1C4F002803D194
:10BA0000E5613888E0802681E0882189421A18485B
:10BA1000E169007801F0DAF9E16980B20918E161C1
:10BA2000218909188BB22381002809D039888B42DB
:10BA300006D21049104A09784900515A814210D95A
:10BA40000E48017801200129009003D80021064A00
:10BA5000022003E029786A1C02205B1E06F00AFD22
:10BA60002681F8BDB0F2FF1FB11B0020FA3D010096
:10BA7000EC3D01008FF2FF1FF23D0100F73D010098
:10BA800010B50446000702D52046FFF70FFF6007F8
:10BA900002D52046FFF7ACFF10BD00000348044963
:10BAA0008078085C0349087001207047A8F2FF1FE6
:10BAB000A0F1FF1F301B002010B506F04DFC02491D
:10BAC0000870012010BD0000301B00200B4900222F
:10BAD000C878012806D0022806D0032806D1084AD3
:10BAE000521C03E0074AFBE70020704710B5897835
:10BAF000002306F033FC012010BD0000A8F2FF1F58
:10BB0000A1F1FF1F701B00204748007800287DD05E
:10BB1000F8B546480423017800264A1C02704448C0
:10BB200000784200821893405B1E994203DB002399
:10BB30003E4901260B703F4B00251988FF2901D291
:10BB4000491C198041003C48405A3A4900900988F4
:10BB5000884200D101253949002009788E46002904
:10BB60004FD9022191408C460022002E0DD034493D
:10BB70000B5CFF2B01D25B1C0B54324B1B5C002B6C
:10BB800003D0095C994200D301222E496446095C26
:10BB90000B46A340009CA34203DA002901D00123F5
:10BBA00000E00023002D08D0002B06D01F4F0124F9
:10BBB0003F6984403C431D4F3C61234C245CA142BF
:10BBC0000ED01F49095CA14208D3184F01213F69DB
:10BBD00081403943154F39610021397019490C549E
:10BBE000002A0AD0002B05D1104901220B6982409E
:10BBF0001A430A61124900220A54401CC0B270451F
:10BC0000B2D3002D04D000210A4800E00AE00180F0
:10BC100006480169002904D04088002801D1FFF7B7
:10BC200045FEF8BD704700008DF2FF1FB0F2FF1F08
:10BC30008FF2FF1F9CF1FF1FEE3D0100F63D01005A
:10BC40009EF1FF1F9FF1FF1FA0F1FF1F0A480A4945
:10BC50008078C978002802D0084A81540AE0084A4E
:10BC600000201378002B05D9064A1154401CC0B29D
:10BC70009842FAD301207047A8F2FF1F9FF1FF1FDF
:10BC8000F63D0100A0F1FF1F10B50348807806F0D3
:10BC9000EFFB012010BD0000A8F2FF1F0D4900229C
:10BCA000C878012806D0022806D0032806D10A4AFF
:10BCB000521C03E000207047084AF9E738B500231A
:10BCC0000093CB798C791B022343897806F0D2FB51
:10BCD000012038BDA8F2FF1FA1F1FF1FB11B0020FA
:10BCE000F8B5EFF31080C007C00F72B6624D0026A2
:10BCF000EC68EE60297800912E70002800D162B6C1
:10BD0000E00708D001F0AEF906F0A0FC5B4800683F
:10BD1000002800D08047E00609D559480179202243
:10BD20001143017157480068002800D08047A006E1
:10BD300009D553490879DF2210400871524800683C
:10BD4000002800D08047600704D5504800680028CC
:10BD500000D08047022C09D14D480168002902D04B
:10BD60004748007A88474648FF210172200779D565
:10BD7000EFF31080C107C90F72B6AA6868689042D5
:10BD800001D1012000E00020002900D162B6002886
:10BD900068D1404FEFF31080C607F60F72B63E49E8
:10BDA00068680C5C1521401CFCF791FD6960002E51
:10BDB00000D162B620462207D30F21066207090F81
:10BDC000D20F002908D15C00A418E4003C5D0026D5
:10BDD000A406240F0D2C0AD08C005B00E3189A18DF
:10BDE000D600BA5D9206120F012A13D01DE0296910
:10BDF000022081432961387E4006400E3876387C27
:10BE00004006400E387425486E700168002917D02E
:10BE1000022014E0002902D1C007C00F68701F483B
:10BE20000159002901D004208847B85D8006000F21
:10BE3000092805D119480159002901D0082088474F
:10BE4000EFF31080C107C90F72B6AA686868904204
:10BE500002D1012001E005E00020002900D162B6F6
:10BE6000002897D00098002804D00548017DDF22E3
:10BE700011400175F8BD0000A4F1FF1F143E010040
:10BE800080200740183E01001C3E0100203E0100BA
:10BE9000243E0100001E0020A0230020283E0100B7
:10BEA00010B41C48402303701B484168052212044B
:10BEB00011434160416B1A031143416317499001DB
:10BEC00008601748017B802211430173017B09063A
:10BED000FCD41449144C090A21771249134A090C5D
:10BEE00011741049090E1175FF212170104909685C
:10BEF000002900D004210F4A1268002A00D0022233
:10BF000011431922114321710370017B19430173FD
:10BF100010BC7047B8F1FF1F0080044000E100E052
:10BF200000210740001E002080200740A02007407D
:10BF3000203E0100243E010070B500F027F90028E2
:10BF400045D02348022202704270224D03202A630A
:10BF50002870214C082021180B7818464B781B02BA
:10BF600018438B78C9781B04184309060843022834
:10BF70000ED91A48110A02724172110C8172110E07
:10BF8000C1722272100A6072100CA072100EE07260
:10BF900013488021007808430D4901F025F9082055
:10BFA00021180A7810464A78120210438A78C97814
:10BFB0001204104309060843296B401A2072010A33
:10BFC0006172010CA172000EE0720120207370BD3D
:10BFD000F21B0020D4F2FF1FDF250020C025002027
:10BFE000FD3D010010B51C4A117800290FD0012930
:10BFF00010D01A48052900781AD0072926D000F059
:10C0000099FE17490220087300F076FE10BD00F07B
:10C0100065F910BD1348C07B2A2803D02F2804D00F
:10C02000AA28F6D100F0B6FB10BD00F033FB10BD1E
:10C03000012181400C480068014201D0012000E04C
:10C0400000200A4A0AA101F05BF910BD002010701F
:10C05000106B1F28DBD010BDD4F2FF1FFE3D010086
:10C06000DF250020C025002098F2FF1F4A040000B1
:10C070002E2E5C2E2E5C2E2E5C736F757263655CAB
:10C080007573625C6D73635C757362645F6D73631B
:10C090002E63000070B51C4B5868D860002801D092
:10C0A000012070BD194D082029180A78184C104637
:10C0B0004A78120210438A78C9781204104309069C
:10C0C00008431BD0287B000604D512488021007845
:10C0D000084311E0082021180A7810464A78120215
:10C0E00010438A78C9781204104309060843196B73
:10C0F000884203D00848007800F01CFE012020731D
:10C1000000F0FAFD002070BDD4F2FF1FC025002012
:10C11000DF250020FD3D0100FE3D010010B5164861
:10C1200001798F200140080605D50807000F01227C
:10C130001204824001E001228A40104880230078E6
:10C140001843884216D10E490968114212D00D4A8F
:10C150001378194653781B0219439378D2781B043D
:10C16000194312061143084A914203D10D22054991
:10C1700001F03AF810BD0000A8F2FF1FFD3D0100DC
:10C1800098F2FF1FDF2500205553425370B5104B26
:10C19000082019180A78022410464A780D4D120218
:10C1A00010438A78C978120410430906084300280E
:10C1B00006D0187B000608D40748007800F0BAFDC6
:10C1C0002C7300F099FD002070BD012070BD0000AF
:10C1D000C0250020DF250020FE3D010010B51B49D1
:10C1E0001B4C0A7810464A78120210438A78C978A4
:10C1F0001204104309060843216B884202D82063C9
:10C20000032000E004202070124880210078226B77
:10C210000843114900F0E8FF104908200A18137874
:10C22000184653781B0218439378D2781B0418439E
:10C2300012061043226B801A0872020A4A72020C1C
:10C240008A72000EC8720020087310BDC825002035
:10C25000D4F2FF1FFD3D0100F21B0020DF2500206E
:10C2600070B50446174D400709D51748174902888D
:10C270001748007800F0AAFD2863FFF7B3FE2007F7
:10C280000AD52878022808D003280FD0042810D017
:10C29000052801D10020287070BD0E48C07B2828D9
:10C2A00001D0A828F8D100F077F970BD00F024FD86
:10C2B00070BD094880210078084300F03BFD00F084
:10C2C0001BFD70BDD4F2FF1F043E0100F21B0020D5
:10C2D000FE3D0100C0250020FD3D0100F8B58A4E5D
:10C2E000326B1F2A01D2114600E01F210020874F28
:10C2F000002905D9864B1C5C3C54401C8842FAD36B
:10C30000844880210078012508431F2A6FD13B789B
:10C31000FA7819467B7812061B021943BB781B0476
:10C32000194311437C4A914261D13B79FA7919460C
:10C330007B7912061B021943BB79784C1B04194305
:10C34000114321710A0A62710A0CA271090EE1718E
:10C3500008217A181378194653781B0219439378E9
:10C36000D2781B0419431206114321720A0A627221
:10C370000A0CA272090EE172797B012904D8B97BFB
:10C38000002901D0102901D9257383E0F97B2A29DE
:10C390003BD021DC1A294ED00EDC0429F4D006DC77
:10C3A00000293BD00329EFD100F004FCF8BD12298D
:10C3B000EAD100F0C5F8F8BD232942D007DC1B29DB
:10C3C0002FD01E29E0D1F87CC007DDD17EE02529E1
:10C3D0003AD02829D8D140E09E293BD00DDC552900
:10C3E000D2D005DC2F2958D03529CDD158E072E0C4
:10C3F0005A2923D09129C7D152E0A12927D0A329B6
:10C4000066D0A82929D0AA29BED100F0E3FA0028D5
:10C41000D1D0387B000635D43570F8BD00F0A0FCD3
:10C42000F8BDB87C0028AFD1F87CC007C00F7060A1
:10C4300006F0D2F834E000F08DFAF8BD00F048FACA
:10C44000F8BD00F069FBF8BD00F040FBF8BDFFF758
:10C4500073FDF8BD00F018FCF8BD00F0BBFA002831
:10C46000FAD0387B000604D50220307000F094F832
:10C47000F8BD2B48007800F05DFC0220207300F02E
:10C480003BFCF8BD234880210078084300F052FCB3
:10C490000220207300F030FCF8BD387C800704D403
:10C4A0000020207300F028FCF8BD00F093FA00286B
:10C4B000FAD0387B000602D435703562F8BD1548D5
:10C4C00080210078084300F035FC02202073E1E76A
:10C4D00000F030FC58E70F4C00F02CFC2078114C99
:10C4E0000107090F01200004884021680C4F084310
:10C4F0002060387800F01EFC3878854020680543BD
:10C50000062025603070F8BDD4F2FF1FC025002042
:10C51000F21B0020FD3D010055534243DF25002062
:10C52000FE3D01009CF2FF1F10B506F079FD0349A6
:10C53000002800D001200870012010BD301B002011
:10C5400010B5FFF723FE00281FD0104B00201870F5
:10C550008021597002219970D97020241C71587162
:10C560009871D8710A48016808200A78002A02D018
:10C570001A54491C00E01C54401CC0B22428F4D3B7
:10C58000044924200863FFF729FE10BDF21B002098
:10C5900054F1FF1FD4F2FF1FF8B5384D0026A969EA
:10C5A000686A374F88420AD33648802100780024D1
:10C5B000084300F0BFFB3E7300F09EFB08E03248EA
:10C5C000007841003148445AE86A844200D3044666
:10C5D000FFF760FD002800D10024A86A002839D0A8
:10C5E000002C0FD0A96AE8698022411825480078FC
:10C5F0001043224600F0F8FDA86A0019A862E86A14
:10C60000001BE86229696869AA6A4143914203D123
:10C61000AE62696A08186862082039180A781046FC
:10C620004A78120210438A78C97812041043090626
:10C630000843001B3872010A7972010C000EB972AE
:10C64000F872002C05D0E86A002802D10320287077
:10C650003E73F8BD002CD5D02969E86A4018401E09
:10C66000FCF735F969690246884200D90A4608484C
:10C67000E969437B686A05F08FFFB3E7D4F2FF1FD7
:10C68000DF250020FD3D01008FF2FF1F003E01006D
:10C69000C0250020F8B53A4C0025A169606A88429F
:10C6A00008D338482563007800F044FB364805730A
:10C6B00000F022FBFFF7EEFC002806D0206B0028DC
:10C6C00027D0A06A002802D012E0256321E021696A
:10C6D000E06A4018401EFCF7FAF861690246884299
:10C6E00000D90A462948E169437B606A05F054FF96
:10C6F000276B0020002F0CD9A66AE36931185A5C19
:10C700002349095C8A4201D0256202E0401CB842FC
:10C71000F4D3236BA06AC018A062E16ACE1AE66265
:10C72000226961694A43824203D1A562606A401866
:10C730006062154908200A181578284655782D0298
:10C7400028439578D2782D04284312061043C01A46
:10C750000872020A4A72020C000E8A72C872002B1A
:10C760000BD0002E02D02078052806D1206A0028A0
:10C7700004D00020087300F0BFFAF8BD0120F9E7EB
:10C78000D4F2FF1FFE3D0100DF250020C025002060
:10C79000F21B0020F8B5404D0024A969686A884260
:10C7A00008D33E482C63007800F0C4FA3C48047378
:10C7B00000F0A2FAFFF76EFC002800D12C63296B71
:10C7C000A86A2A694018904206D9FF220A3235A188
:10C7D000002000F095FDF8BD0020002909D93A4E4F
:10C7E000EB69AA6A315C12189954296B401C884283
:10C7F000F7D3A86A4018A862EA6A521AEA620029C6
:10C8000027D0324F002A15D1002813D029694018AB
:10C81000401EFCF75CF869690646884200D90E465E
:10C820007B7B3246E969686A05F0D8FEAC62686ACB
:10C8300080190DE06A6929695143814209D17B7BE6
:10C84000E969686A05F0CAFEAC626969686A4018FD
:10C850006862134908200A181378184653781B0297
:10C8600018439378D2781B041843120610432A6B9E
:10C87000801A0872030A4B72030C000E8B72C87286
:10C88000002AA8D0E86A002802D028780528A2D17A
:10C890000C7300F031FAF8BDD4F2FF1FFE3D010029
:10C8A000DF2500202E2E5C2E2E5C2E2E5C736F75E5
:10C8B0007263655C7573625C6D73635C75736264EF
:10C8C0005F6D73632E630000F21B0020C025002003
:10C8D00010B5FFF75BFC002833D0FFF7DBFB002827
:10C8E0002FD018480021017006224270164B81702B
:10C8F0001A7AD201C270017141718171C17108212E
:10C90000124A196353181C7820465C78240220438D
:10C910009C78DB78240420431B06184308280ED992
:10C920000B480B0A017243720B0C83720B0EC3721D
:10C930001172080A5072080C9072080ED072FFF73C
:10C940004DFC10BDF21B0020D4F2FF1FDF2500209C
:10C95000C025002010B5FFF719FC002830D0FFF7E4
:10C9600099FB00282CD01748032101700021164B99
:10C9700041701A7AD2018270C1700421134A0820D2
:10C98000196313181C7820465C78240220439C7895
:10C99000DB78240420431B06184304280ED90C48D6
:10C9A0000B0A017243720B0C83720B0EC37211726D
:10C9B000080A5072080C9072080ED072FFF70EFC35
:10C9C00010BD0000F21B0020D4F2FF1FDF25002065
:10C9D000C025002070B5374D102029180A78364C34
:10C9E00010464A78354E120210438A78C9781204EC
:10C9F00010430906084300BA010A207D09020143D9
:10CA000000207162B062E07B2F280AD004DC282865
:10CA10000BD02A2825D104E0A82810D0AA2820D19C
:10CA200009E0FFF737FB002841D0E07DA17D00023F
:10CA3000084341BA15E0FFF72DFB002837D014203A
:10CA400029180A7810464A78120210438A78C97861
:10CA5000120410430906084300BA010A207E0902A5
:10CA6000014330690125414308202218F1621378FF
:10CA7000134E184653781B0218439378D2781B0440
:10CA800018431206104300280DD0884210D0207B96
:10CA9000000604D50B4880210078084301E00A48CD
:10CAA000007800F047F9357300F026F9002070BDDA
:10CAB000012070BDC1250020C0250020D4F2FF1F39
:10CAC000DF250020FD3D0100FE3D010010B5FFF710
:10CAD0005DFB00281AD0FFF7DDFA002816D00C4ABB
:10CAE0000C499069401E030E0B70030C4B70030A37
:10CAF0008B70C8701069030E0B71030C4B71030A25
:10CB00008B71C87108201063FFF768FB10BD00002F
:10CB1000D4F2FF1FF21B002010B5FFF737FB0028EF
:10CB20003ED0FFF7B7FA00283AD01E480021017026
:10CB30004170817008211C4AC17091690B0E03710C
:10CB40000B0C43710B0A8371C171022101721169CF
:10CB50000B0C43720B0A8372C1720C211163134ACE
:10CB6000082013181C7820465C78240220439C7807
:10CB7000DB78240420431B0618430C280ED90C48EC
:10CB80000B0A017243720B0C83720B0EC37211728B
:10CB9000080A5072080C9072080ED072FFF71EFB44
:10CBA00010BD0000F21B0020D4F2FF1FDF25002083
:10CBB000C025002070B5FFF7E9FA00282ED01C48E8
:10CBC0007021017000211B4B41705A68DD681446CA
:10CBD000AC4306D006248470282404734173DA60C1
:10CBE0000AE0002A1BD0144A127B002A1DD005221D
:10CBF0008270202202734173C17001714171817191
:10CC00000A22C271017241728172C1728173C17351
:10CC10000174417412201863FFF7E0FA70BD02221C
:10CC200082703A2202734173E6E781700173E2E792
:10CC3000F21B0020D4F2FF1FDF2500200649002050
:10CC400008600649087048708870C8700449072059
:10CC500008700120704700009CF2FF1FDF250020B4
:10CC6000D4F2FF1F0549002008600549087048708C
:10CC70008870C87003490720087070479CF2FF1F36
:10CC8000DF250020D4F2FF1F10B5FFF77FFA002840
:10CC900029D015482022027000214170C177134C21
:10CCA00003202263207012488021007808430E4937
:10CCB00000F09AFA0F4908200A181378184653789A
:10CCC0001B0218439378D2781B04184312061043B2
:10CCD000226B801A0872020A4A72020C8A72000ED3
:10CCE000C8720120087310BDF21B0020D4F2FF1F90
:10CCF000FD3D0100DF25002010B50A480A49020A5F
:10CD000008704A70020C8A70000EC87007488021B3
:10CD100000780D220843044900F066FA0449052012
:10CD2000087010BD55534253DF250020FD3D010022
:10CD3000D4F2FF1F10B5044600F038FA200605D5DE
:10CD40002107090F01200004884001E00120A040D4
:10CD500002490A681043086010BD000098F2FF1FE6
:10CD6000154B10B5082019180A78144C10464A784B
:10CD7000120210438A78C978120410430906084346
:10CD800010D0187B000604D50D4880210078084398
:10CD900001E00C480078FFF7CDFF01202073FFF77A
:10CDA000ABFF10BDFFF776F90028FAD00020207302
:10CDB000FFF7A2FF10BD0000C0250020DF250020E6
:10CDC000FD3D0100FE3D010070470000F7B506463D
:10CDD00082B0002000903007850E3D48EC002018FE
:10CDE0000F4601904188002E1DD13A484078002816
:10CDF00011D0680801218140EFF31080C007C00FF7
:10CE000072B6354A13684B401360002800D162B6F1
:10CE1000002005B0F0BD2E48005D8006000F0D28F3
:10CE200001D1012000900498884206D2FF22EF32FF
:10CE30002AA1002000F064FA04990020002907D9F3
:10CE4000334BAA01D3181A5C3A54401C8842FAD3D7
:10CE50003048825D01981E4E42801E486A08006973
:10CE6000355D0346D340DB076D06DB0FED0FAB42AC
:10CE700014D1FB79BD791B022B43009D002D01D0FD
:10CE8000002B12D001259540EFF31083DB07DB0F59
:10CE900072B6114F68403860002B11D00D48006900
:10CEA000D040C0070ED0C8200DE0EFF31083DB07A1
:10CEB000DB0F72B6084D400840002860002BEDD112
:10CEC00062B6EBE788203055084605B0F0BD00009B
:10CED000001E0020A4F1FF1FB4F1FF1F2E2E5C2EB8
:10CEE0002E5C2E2E5C736F757263655C6869635F80
:10CEF00068616C5C667265657363616C655C7573B3
:10CF000062645F6B696E657469732E630000000074
:10CF1000A01E0020B8F1FF1F10B5FFF7FFF810BDED
:10CF200070B41B4A1B4CD3781B4A25781478184AD6
:10CF30001A4E1279212B02D0222B25D118E0AA42B9
:10CF400001D0A24220D1164A1378164A002B12783B
:10CF500001D1012A18D0002A08D0134A02601046D5
:10CF6000124A128880183060092009E0104AF5E75B
:10CF7000AA4201D0A24207D10E4830600E48008874
:10CF8000086070BC0120704770BC00207047000032
:10CF9000A8F2FF1FE93D0100EA3D0100A0F2FF1FDA
:10CFA000E33D01008FF2FF1F1D400100983E01008C
:10CFB000913F0100743E0100963E010070B5274B81
:10CFC000024618782549C0064988254EC00E04D06F
:10CFD00001282BD0022829D111E0012926D10224D1
:10CFE000002A05D0012000F0FEF8F088204304E07C
:10CFF000002000F0F8F8F088A043F0802CE01D79C4
:10D000008F200540280605D52807000F0124240499
:10D01000844001E00124AC407078002806D0280745
:10D0200004D0B068204201D0002901D0002070BD9A
:10D03000002A05D0284600F0B9F8F06820430AE03D
:10D040003069204208D12846FDF728FE2846FFF720
:10D0500063FFF068A043F060012070BDA8F2FF1FDD
:10D060008CF2FF1F70B501261848360606600120B5
:10D07000174D0024810049190C70401C1028F9D369
:10D0800015211448FBF721FC1348144944608460BF
:10D09000C4600470447040224A80114A4A60C82229
:10D0A0000A700C720F4ACC614A610D2129700E4939
:10D0B00001610E48017D022211430175FF210170BB
:10D0C0000172017304760A48066070BD80E100E0D9
:10D0D000C0200740A0230020A4F1FF1F001E002055
:10D0E000A01E0020201F00205555555580200740C8
:10D0F00000E100E0F0B41E4F010704060026012302
:10D100001C4D090F3A68002C16DA4800401C834079
:10D11000EFF31080C007C00F72B61A433A600028C0
:10D1200000D162B60A021448121848014019803230
:10D13000C6614261F0BC70474400A340DC43EFF39A
:10D140001083DB07DB0F72B622403A60002B00D160
:10D1500062B60A4A135C4A01501943800B02064921
:10D16000591841608821A9540672F0BC704700002C
:10D17000B4F1FF1F001E0020A01E0020B8F1FF1F09
:10D1800010B5FDF7F1FCFFF76DFD10BD10B5FEF712
:10D19000BBFCFDF7EDFC10BD002903D140060249A0
:10D1A000400E087670470000802007400007810E7F
:10D1B00003480818017802221143017070470000EB
:10D1C000C020074010B5034881680120400201F0EB
:10D1D000BFFE10BD60F0FF1F10B500221146802079
:10D1E00000F002F810BD7047F0B40007800E801CFC
:10D1F000144FC600F3195A800023002A07D9124D94
:10D2000084016419CD5CE5545B1C9342FAD3410858
:10D210000E4800690346CB40DB0701D0882300E0BD
:10D22000C823BB5501238B40EFF31081C907C90FF9
:10D2300072B6074C58402060002900D162B61046F3
:10D24000F0BC7047001E0020A01E0020A4F1FF1FAC
:10D25000B4F1FF1F0020704700210160416001729E
:10D2600070470A7802704B7843708A788270CA7867
:10D27000C2700B790371704710B4002A06DA5200AD
:10D280005208D21DD308DB00102203E0D21C930801
:10D290009B000C22002B02D09C188C4202D910BC9F
:10D2A0000120704782188360411802604160C91AEA
:10D2B000D018884202D810600246F9E700201060BA
:10D2C00010BC7047B0B5044603F064FA002804D0DF
:10D2D000034F0249BC46206800DFB0BDFFFF0000DD
:10D2E00011020100B0B5044603F054FA002803D03F
:10D2F000024F2068BC4600DFB0BD000065010100A0
:10D3000000281FD1F8B516460F46EFF31080C4076A
:10D31000E40F72B600231A461946184600F098FA30
:10D32000050003D13146384600F0E6FA002C00D162
:10D3300062B6002D05D1EFF30380C00601D105F0E0
:10D3400079FDF8BD7047704770B511490F483CC969
:10D350003CC03CC93CC04A6809684260016005F0B5
:10D360002FFF0C4805F020FF05F028FC0A49012298
:10D3700008600A4952020A60094A012111600949FC
:10D38000400A086009490848086070BD440600204A
:10D39000D03901006DE0000008F3FF1FE4F2FF1F29
:10D3A000E8F2FF1FECF2FF1F44040020F0F2FF1F21
:10D3B00010B590B04021684604F0E4FC04000AD0A7
:10D3C0006846007803F094FA21466846FDF72EFA85
:10D3D000012001F0EBFD40216846FDF70BFA002823
:10D3E00006D081B2684604F03BFD012001F0DEFD6D
:10D3F00001F0F4FD10B010BD10B4EFF31081CB07B5
:10D40000DB0F72B6EFF31081CC07E40F72B64268FF
:10D41000016880688A4201D3511A01E01218511A3A
:10D42000002C00D162B6401A401E002B00D162B61B
:10D4300010BC7047EFF31081CB07DB0F72B6426868
:10D4400001688A4201D3501A02E080681018401A1D
:10D45000002B00D162B67047EFF31083DB07DB0FC0
:10D4600072B68260C160002101604160002B00D172
:10D4700062B6704770B50446EFF31080C507ED0F34
:10D4800072B661682068884201D0012000E0002067
:10D4900043220D49FFF734FFE16820680E5C401C11
:10D4A0002060A16888420AD3884201D1012000E0AF
:10D4B000002048220449FFF723FF00202060002DB0
:10D4C00000D162B6304670BD20D5000070B504466C
:10D4D000EFF31080C507ED0F72B66268E068815403
:10D4E0006068401C6060A16888420AD3884201D10C
:10D4F000012000E00020312209A1FFF701FF0020F8
:10D50000606061682068884201D0012000E000204E
:10D51000362203A1FFF7F4FE002D00D162B670BDE4
:10D520002E2E5C2E2E5C2E2E5C736F757263655CE6
:10D530006461706C696E6B5C636972635F6275666F
:10D540002E630000F7B582B00446EFF31080C307E6
:10D55000DB0F72B661682068814201D30E1A02E0C7
:10D56000A56849190E1A002B00D162B6B24200D24A
:10D5700016460025002E2CD9EFF31080C707FF0FA9
:10D5800072B661682068884201D0012000E0002066
:10D5900043221149FFF7B4FEE1682068095C401C92
:10D5A00000912060A16888420AD3884201D10120FD
:10D5B00000E0002048220849FFF7A2FE002020607A
:10D5C000002F00D162B60399009848556D1CB542F2
:10D5D000D2D3304605B0F0BD20D50000F7B50446E3
:10D5E000EFF31080C607F60F72B6EFF31080C50791
:10D5F000ED0F72B663682168A0688B4201D3591A97
:10D6000001E01B18591A002D00D162B6401A401EC5
:10D61000002E00D162B6824200D210460025064696
:10D6200000282BD90198405DEFF31081CF07FF0F41
:10D6300072B66268E16888546068401C6060A168E6
:10D6400088420AD3884201D1012000E00020312223
:10D650000C49FFF755FE0020606061682068884231
:10D6600001D0012000E0002036220649FFF748FEE5
:10D67000002F00D162B66D1CB542D3D3304603B043
:10D68000F0BD000020D5000010B50B48C078012186
:10D69000C00948402A2209A1FFF732FE0124640292
:10D6A000224612491248FFF7D7FE22461149124876
:10D6B000FFF7D2FE10BD000000B006402E2E5C2EFB
:10D6C0002E5C2E2E5C736F757263655C6869635F98
:10D6D00068616C5C667265657363616C655C6B6CDC
:10D6E00032367A5C756172742E6300002017002058
:10D6F00010170020301900202019002010B500F06C
:10D7000075FE10BD10B500F071FE10BD02488079A5
:10D71000002800D001207047A42500200248C079CD
:10D72000002800D001207047A42500200248007A7C
:10D73000002800D001207047A4250020F8B58C21D6
:10D740002648FBF7C0F8264E264F3278F17810466F
:10D750007278090612021043B2788C251204104325
:10D760000843214CB84211D17079317905020D433B
:10D770008C2D01D22A4600E08C228C2D00D88C25DD
:10D7800017491648FAF7EEFF0020E0718C21144883
:10D79000FBF799F83770390A7170390CB170390E8E
:10D7A000F1703571290A717141221049F01DFAF7A3
:10D7B000D9FF607A227A01020D4811430172090AE9
:10D7C0004172A17A8172E17AC1728A0009490A48DC
:10D7D000FAF7C8FF00F0C8F8F8BD000018250020CF
:10D7E000002F0020646C766B582500201F25002038
:10D7F000402F0020642500204C2F00200A4AD17AB7
:10D80000102901D300207047084B8900C918403106
:10D810000873030A4B73030C8B73000EC873D07A22
:10D82000401CC0B2D0727047402F0020002F002053
:10D8300010B541210448FBF746F804480021017265
:10D840004172C17210BD0000072F0020402F002040
:10D85000FFB581B01C4615460F461948FAF7ACFDD6
:10D86000461C0198002802D03946FBF72CF800200E
:10D87000002D00D02880002C00D020701149C879DC
:10D8800000281AD0BE4201D8324602E0F01B4118EF
:10D890003A460198C91D0C4E002804D0707A337A9C
:10D8A000000218432880002D02D00198FAF75AFF91
:10D8B000002C01D0B07A2070012005B0F0BD00002E
:10D8C000072F0020002F0020402F00200449CA7A93
:10D8D000002A03D0034A0260C87A704700207047CC
:10D8E000402F00204C2F002002488079002800D0D3
:10D8F00001207047002F0020F3B581B00546FAF7EC
:10D900005BFD144E441C41273946F01DFAF7DBFF3E
:10D91000412C02D82946224602E0413C61193A4690
:10D92000F01DFAF71FFF0C4C02982072000A60727B
:10D9300000F0EEF8002801D0012007E000F0EAF83E
:10D94000002803D00220A07203B0F0BDA07203B083
:10D95000F0BD0000002F0020402F002001498871F9
:10D9600070470000002F002070B5002211461046BD
:10D97000FCF7F8FA09221F491F48FAF7F3FE1F4C7B
:10D9800022781046627812021043A278E1781204DD
:10D99000104309061A4D0843A8420FD16079217936
:10D9A00000020843092804D26079217902020A435F
:10D9B00000E0092211491048FAF7D4FE0E48092167
:10D9C0000560818022781046627812021043A278A6
:10D9D000E1781204104309060843A84205D1607992
:10D9E000217900020843092802D2034801F03EFED3
:10D9F00070BD000002410100A425002000FC0100D0
:10DA0000646C766B10B503498871084601F02EFEF0
:10DA100010BD0000A425002010B50349C8710846B8
:10DA200001F024FE10BD0000A425002010B503491C
:10DA30000872084601F01AFE10BD0000A42500205F
:10DA4000F8B586460020C04300268C46002921DD1B
:10DA5000714608258B5D00242246D90704D0A91AF7
:10DA60000127491E8F403C43521C5B08D2B2AA4298
:10DA7000F3D3210648400A4A0821002802DA400070
:10DA8000504000E04000491E0906090EF5D1761C01
:10DA90006645DDDB202102F02DF9C043F8BD000012
:10DAA000B71DC104F7B50C462021C04302F022F98E
:10DAB00002990026A446002922DD614608258B5DD7
:10DAC00000242246D90704D0A91A0127491E8F40F5
